{
  "contractName": "sell",
  "abi": [
    {
      "constant": true,
      "inputs": [
        {
          "name": "",
          "type": "uint256"
        }
      ],
      "name": "seller",
      "outputs": [
        {
          "name": "owner",
          "type": "address"
        },
        {
          "name": "code",
          "type": "string"
        },
        {
          "name": "prize",
          "type": "uint256"
        },
        {
          "name": "sold",
          "type": "bool"
        }
      ],
      "payable": false,
      "stateMutability": "view",
      "type": "function"
    },
    {
      "constant": false,
      "inputs": [
        {
          "name": "code",
          "type": "string"
        },
        {
          "name": "prize",
          "type": "uint256"
        }
      ],
      "name": "selling",
      "outputs": [],
      "payable": false,
      "stateMutability": "nonpayable",
      "type": "function"
    },
    {
      "constant": true,
      "inputs": [
        {
          "name": "idGoods",
          "type": "uint256"
        }
      ],
      "name": "getcode",
      "outputs": [
        {
          "name": "",
          "type": "string"
        }
      ],
      "payable": false,
      "stateMutability": "view",
      "type": "function"
    }
  ],
  "bytecode": "0x6080604052600160005534801561001557600080fd5b50610680806100256000396000f300608060405260043610610057576000357c0100000000000000000000000000000000000000000000000000000000900463ffffffff1680637275756a1461005c5780638d3d74e914610102578063aacdfe6f14610175575b600080fd5b34801561006857600080fd5b5061008760048036038101908080359060200190929190505050610260565b6040518080602001828103825283818151815260200191508051906020019080838360005b838110156100c75780820151818401526020810190506100ac565b50505050905090810190601f1680156100f45780820380516001836020036101000a031916815260200191505b509250505060405180910390f35b34801561010e57600080fd5b50610173600480360381019080803590602001908201803590602001908080601f01602080910402602001604051908101604052809392919081815260200183838082843782019150505050505091929192908035906020019092919050505061039c565b005b34801561018157600080fd5b506101a0600480360381019080803590602001909291905050506104ab565b604051808573ffffffffffffffffffffffffffffffffffffffff1673ffffffffffffffffffffffffffffffffffffffff1681526020018060200184815260200183151515158152602001828103825285818151815260200191508051906020019080838360005b83811015610222578082015181840152602081019050610207565b50505050905090810190601f16801561024f5780820380516001836020036101000a031916815260200191505b509550505050505060405180910390f35b606060018281548110151561027157fe5b906000526020600020906004020160000160009054906101000a900473ffffffffffffffffffffffffffffffffffffffff1673ffffffffffffffffffffffffffffffffffffffff163373ffffffffffffffffffffffffffffffffffffffff161415156102dc57600080fd5b6001828154811015156102eb57fe5b90600052602060002090600402016001018054600181600116156101000203166002900480601f0160208091040260200160405190810160405280929190818152602001828054600181600116156101000203166002900480156103905780601f1061036557610100808354040283529160200191610390565b820191906000526020600020905b81548152906001019060200180831161037357829003601f168201915b50505050509050919050565b3360016000548154811015156103ae57fe5b906000526020600020906004020160000160006101000a81548173ffffffffffffffffffffffffffffffffffffffff021916908373ffffffffffffffffffffffffffffffffffffffff16021790555081600160005481548110151561040f57fe5b906000526020600020906004020160010190805190602001906104339291906105af565b5080600160005481548110151561044657fe5b9060005260206000209060040201600201819055506000600160005481548110151561046e57fe5b906000526020600020906004020160030160006101000a81548160ff02191690831515021790555060008081548092919060010191905055505050565b6001818154811015156104ba57fe5b90600052602060002090600402016000915090508060000160009054906101000a900473ffffffffffffffffffffffffffffffffffffffff1690806001018054600181600116156101000203166002900480601f01602080910402602001604051908101604052809291908181526020018280546001816001161561010002031660029004801561058c5780601f106105615761010080835404028352916020019161058c565b820191906000526020600020905b81548152906001019060200180831161056f57829003601f168201915b5050505050908060020154908060030160009054906101000a900460ff16905084565b828054600181600116156101000203166002900490600052602060002090601f016020900481019282601f106105f057805160ff191683800117855561061e565b8280016001018555821561061e579182015b8281111561061d578251825591602001919060010190610602565b5b50905061062b919061062f565b5090565b61065191905b8082111561064d576000816000905550600101610635565b5090565b905600a165627a7a723058208947df14e3db7846418bde86bef41667463853c38acd832dd014acbc7ab1b66e0029",
  "source": "pragma solidity ^0.4.0;\r\n\r\ncontract sell{\r\n\r\n    //struct barang yang dijual\r\n    struct goods{\r\n        address owner;\r\n        string code;\r\n        uint prize;\r\n        bool sold;\r\n    }\r\n    uint id=1;\r\n\r\n    goods[] public seller;\r\n\r\n    function selling(string code, uint prize) public{\r\n        seller[id].owner = msg.sender;\r\n        seller[id].code = code;\r\n        seller[id].prize = prize;\r\n        seller[id].sold = false;\r\n\r\n        id++;\r\n    }\r\n\r\n    function getcode(uint idGoods) view public returns(string){\r\n        require(msg.sender == seller[idGoods].owner);\r\n\r\n        return seller[idGoods].code;\r\n    }\r\n}\r\n\r\n\r\n",
  "sourcePath": "E:\\Nay\\Tugas\\Polban\\Semester 3\\Proyek\\Technologist\\sell\\contracts\\sell.sol",
  "compiler": {
    "name": "solc",
    "version": "0.4.24+commit.e67f0147.Emscripten.clang"
  },
  "schemaVersion": "2.0.1",
  "updatedAt": "2018-10-16T03:38:28.400Z"
}